:1000000012C0189518951895189518951895189563
:100010001895189518951895189518951895189578
:100020001895189518958FE58DBFC0E4E8E24E2E1F
:1000300084E08EBFD4E0F4E05F2EEEEFF3E0A0E6C4
:10004000B0E0A89584B7082E877F84BF88E1992700
:1000500081BD91BD88278D933197E9F787E489B9F0
:1000600080E080BD88E18AB966248FEF87BB8FEF7F
:1000700084BBB99ABA9ABB9ABC9AA09AA19AA29A3E
:10008000A39AC19AC29AE4E7F2E0CBD0D0D088EE2E
:1000900093E0DDD031E0A0E6B0E0BAD086E4482FAE
:1000A00000916000041709F002C07ED068C082E4AD
:1000B000482F041709F002C07FD061C08CE4482F9C
:1000C000041709F002C080D05AC082E5482F0417F7
:1000D00009F002C081D053C087E4482F041709F00B
:1000E00002C082D04CC089E4482F041709F002C036
:1000F00080D045C088E4482F041709F002C07ED0A4
:100100003EC08AE4482F041709F002C07CD037C0F3
:1001100083E5482F041709F002C03ED030C087E5C0
:10012000482F041709F002C0C39A29C087E7482F57
:10013000041709F002C0C39822C085E5482F0417B0
:1001400009F002C0C49A1BC085E7482F041709F0C4
:1001500002C0C49814C086E5482F041709F002C0F5
:10016000C59A0DC086E7482F041709F002C0C5984C
:1001700006C084E4482F041709F001C003D08ACFD9
:10018000F894FFCFA898A998AA98AB98C398C49858
:100190008AE090E05CD00895A898A998AA98AB98B6
:1001A0008AE090E054D00895A89AA998AA98AB98AC
:1001B0008AE090E04CD00895A898A99AAA98AB98A4
:1001C0008AE090E044D00895A898A998AA98AB9A9C
:1001D0008AE090E03CD00895A898A998AA9AAB9894
:1001E0008AE090E034D00895A89AA998AA98AB9A8A
:1001F0000895A89AA998AA9AAB980895A898A99A38
:10020000AA98AB9A0895A898A99AAA9AAB98089523
:1002100004D08D933A95E1F708955F9BFECF8CB1A2
:10022000089524D0802D11F005D0FBCF08958DE0E6
:1002300001D08AE05D9BFECF8CB908953197F1F72C
:100240000895689462F80895E89462F80895EF9329
:10025000FF93EE27E82BE92B31F0EDECFAE0319734
:10026000F1F70197D1F7FF91EF910895C895319675
:1002700000200895454E544552204E554D4245525A
:0202800000007C
:00000001FF
